{
  "_format": "hh-sol-artifact-1",
  "contractName": "Garen",
  "sourceName": "contracts/Garen.sol",
  "abi": [
    {
      "inputs": [],
      "stateMutability": "nonpayable",
      "type": "constructor"
    },
    {
      "anonymous": false,
      "inputs": [
        {
          "indexed": true,
          "internalType": "address",
          "name": "owner",
          "type": "address"
        },
        {
          "indexed": true,
          "internalType": "address",
          "name": "approved",
          "type": "address"
        },
        {
          "indexed": true,
          "internalType": "uint256",
          "name": "tokenId",
          "type": "uint256"
        }
      ],
      "name": "Approval",
      "type": "event"
    },
    {
      "anonymous": false,
      "inputs": [
        {
          "indexed": true,
          "internalType": "address",
          "name": "owner",
          "type": "address"
        },
        {
          "indexed": true,
          "internalType": "address",
          "name": "operator",
          "type": "address"
        },
        {
          "indexed": false,
          "internalType": "bool",
          "name": "approved",
          "type": "bool"
        }
      ],
      "name": "ApprovalForAll",
      "type": "event"
    },
    {
      "anonymous": false,
      "inputs": [
        {
          "indexed": true,
          "internalType": "address",
          "name": "previousOwner",
          "type": "address"
        },
        {
          "indexed": true,
          "internalType": "address",
          "name": "newOwner",
          "type": "address"
        }
      ],
      "name": "OwnershipTransferred",
      "type": "event"
    },
    {
      "anonymous": false,
      "inputs": [
        {
          "indexed": true,
          "internalType": "address",
          "name": "from",
          "type": "address"
        },
        {
          "indexed": true,
          "internalType": "address",
          "name": "to",
          "type": "address"
        },
        {
          "indexed": true,
          "internalType": "uint256",
          "name": "tokenId",
          "type": "uint256"
        }
      ],
      "name": "Transfer",
      "type": "event"
    },
    {
      "anonymous": false,
      "inputs": [
        {
          "indexed": true,
          "internalType": "address",
          "name": "from",
          "type": "address"
        },
        {
          "indexed": true,
          "internalType": "address",
          "name": "to",
          "type": "address"
        },
        {
          "indexed": true,
          "internalType": "uint256",
          "name": "tokenId",
          "type": "uint256"
        }
      ],
      "name": "mintEvent",
      "type": "event"
    },
    {
      "inputs": [],
      "name": "MAX_MINT_PER_PERSON",
      "outputs": [
        {
          "internalType": "uint256",
          "name": "",
          "type": "uint256"
        }
      ],
      "stateMutability": "view",
      "type": "function"
    },
    {
      "inputs": [],
      "name": "MAX_SUPPLY",
      "outputs": [
        {
          "internalType": "uint256",
          "name": "",
          "type": "uint256"
        }
      ],
      "stateMutability": "view",
      "type": "function"
    },
    {
      "inputs": [],
      "name": "MINT_PRICE",
      "outputs": [
        {
          "internalType": "uint256",
          "name": "",
          "type": "uint256"
        }
      ],
      "stateMutability": "view",
      "type": "function"
    },
    {
      "inputs": [
        {
          "internalType": "address",
          "name": "to",
          "type": "address"
        },
        {
          "internalType": "uint256",
          "name": "tokenId",
          "type": "uint256"
        }
      ],
      "name": "approve",
      "outputs": [],
      "stateMutability": "nonpayable",
      "type": "function"
    },
    {
      "inputs": [
        {
          "internalType": "address",
          "name": "owner",
          "type": "address"
        }
      ],
      "name": "balanceOf",
      "outputs": [
        {
          "internalType": "uint256",
          "name": "",
          "type": "uint256"
        }
      ],
      "stateMutability": "view",
      "type": "function"
    },
    {
      "inputs": [],
      "name": "count",
      "outputs": [
        {
          "internalType": "uint256",
          "name": "",
          "type": "uint256"
        }
      ],
      "stateMutability": "view",
      "type": "function"
    },
    {
      "inputs": [
        {
          "internalType": "uint256",
          "name": "tokenId",
          "type": "uint256"
        }
      ],
      "name": "getApproved",
      "outputs": [
        {
          "internalType": "address",
          "name": "",
          "type": "address"
        }
      ],
      "stateMutability": "view",
      "type": "function"
    },
    {
      "inputs": [
        {
          "internalType": "address",
          "name": "owner",
          "type": "address"
        },
        {
          "internalType": "address",
          "name": "operator",
          "type": "address"
        }
      ],
      "name": "isApprovedForAll",
      "outputs": [
        {
          "internalType": "bool",
          "name": "",
          "type": "bool"
        }
      ],
      "stateMutability": "view",
      "type": "function"
    },
    {
      "inputs": [
        {
          "internalType": "uint256",
          "name": "tokenId",
          "type": "uint256"
        }
      ],
      "name": "isMinted",
      "outputs": [
        {
          "internalType": "bool",
          "name": "",
          "type": "bool"
        }
      ],
      "stateMutability": "view",
      "type": "function"
    },
    {
      "inputs": [],
      "name": "isSaleOn",
      "outputs": [
        {
          "internalType": "bool",
          "name": "",
          "type": "bool"
        }
      ],
      "stateMutability": "view",
      "type": "function"
    },
    {
      "inputs": [],
      "name": "mint",
      "outputs": [],
      "stateMutability": "payable",
      "type": "function"
    },
    {
      "inputs": [],
      "name": "name",
      "outputs": [
        {
          "internalType": "string",
          "name": "",
          "type": "string"
        }
      ],
      "stateMutability": "view",
      "type": "function"
    },
    {
      "inputs": [],
      "name": "owner",
      "outputs": [
        {
          "internalType": "address",
          "name": "",
          "type": "address"
        }
      ],
      "stateMutability": "view",
      "type": "function"
    },
    {
      "inputs": [
        {
          "internalType": "uint256",
          "name": "tokenId",
          "type": "uint256"
        }
      ],
      "name": "ownerOf",
      "outputs": [
        {
          "internalType": "address",
          "name": "",
          "type": "address"
        }
      ],
      "stateMutability": "view",
      "type": "function"
    },
    {
      "inputs": [],
      "name": "renounceOwnership",
      "outputs": [],
      "stateMutability": "nonpayable",
      "type": "function"
    },
    {
      "inputs": [
        {
          "internalType": "address",
          "name": "to",
          "type": "address"
        },
        {
          "internalType": "string",
          "name": "uri",
          "type": "string"
        }
      ],
      "name": "safeMint",
      "outputs": [],
      "stateMutability": "nonpayable",
      "type": "function"
    },
    {
      "inputs": [
        {
          "internalType": "address",
          "name": "from",
          "type": "address"
        },
        {
          "internalType": "address",
          "name": "to",
          "type": "address"
        },
        {
          "internalType": "uint256",
          "name": "tokenId",
          "type": "uint256"
        }
      ],
      "name": "safeTransferFrom",
      "outputs": [],
      "stateMutability": "nonpayable",
      "type": "function"
    },
    {
      "inputs": [
        {
          "internalType": "address",
          "name": "from",
          "type": "address"
        },
        {
          "internalType": "address",
          "name": "to",
          "type": "address"
        },
        {
          "internalType": "uint256",
          "name": "tokenId",
          "type": "uint256"
        },
        {
          "internalType": "bytes",
          "name": "data",
          "type": "bytes"
        }
      ],
      "name": "safeTransferFrom",
      "outputs": [],
      "stateMutability": "nonpayable",
      "type": "function"
    },
    {
      "inputs": [
        {
          "internalType": "address",
          "name": "operator",
          "type": "address"
        },
        {
          "internalType": "bool",
          "name": "approved",
          "type": "bool"
        }
      ],
      "name": "setApprovalForAll",
      "outputs": [],
      "stateMutability": "nonpayable",
      "type": "function"
    },
    {
      "inputs": [
        {
          "internalType": "bytes4",
          "name": "interfaceId",
          "type": "bytes4"
        }
      ],
      "name": "supportsInterface",
      "outputs": [
        {
          "internalType": "bool",
          "name": "",
          "type": "bool"
        }
      ],
      "stateMutability": "view",
      "type": "function"
    },
    {
      "inputs": [],
      "name": "symbol",
      "outputs": [
        {
          "internalType": "string",
          "name": "",
          "type": "string"
        }
      ],
      "stateMutability": "view",
      "type": "function"
    },
    {
      "inputs": [],
      "name": "toggleSaleState",
      "outputs": [],
      "stateMutability": "nonpayable",
      "type": "function"
    },
    {
      "inputs": [
        {
          "internalType": "uint256",
          "name": "tokenId",
          "type": "uint256"
        }
      ],
      "name": "tokenURI",
      "outputs": [
        {
          "internalType": "string",
          "name": "",
          "type": "string"
        }
      ],
      "stateMutability": "view",
      "type": "function"
    },
    {
      "inputs": [
        {
          "internalType": "address",
          "name": "from",
          "type": "address"
        },
        {
          "internalType": "address",
          "name": "to",
          "type": "address"
        },
        {
          "internalType": "uint256",
          "name": "tokenId",
          "type": "uint256"
        }
      ],
      "name": "transferFrom",
      "outputs": [],
      "stateMutability": "nonpayable",
      "type": "function"
    },
    {
      "inputs": [
        {
          "internalType": "address",
          "name": "newOwner",
          "type": "address"
        }
      ],
      "name": "transferOwnership",
      "outputs": [],
      "stateMutability": "nonpayable",
      "type": "function"
    }
  ],
  "bytecode": "0x60806040526001600960006101000a81548160ff0219169083151502179055503480156200002c57600080fd5b506040518060400160405280600581526020017f476172656e0000000000000000000000000000000000000000000000000000008152506040518060400160405280600381526020017f47524e00000000000000000000000000000000000000000000000000000000008152508160009081620000aa91906200042d565b508060019081620000bc91906200042d565b505050620000df620000d3620000e560201b60201c565b620000ed60201b60201c565b62000514565b600033905090565b6000600760009054906101000a900473ffffffffffffffffffffffffffffffffffffffff16905081600760006101000a81548173ffffffffffffffffffffffffffffffffffffffff021916908373ffffffffffffffffffffffffffffffffffffffff1602179055508173ffffffffffffffffffffffffffffffffffffffff168173ffffffffffffffffffffffffffffffffffffffff167f8be0079c531659141344cd1fd0a4f28419497f9722a3daafe3b4186f6b6457e060405160405180910390a35050565b600081519050919050565b7f4e487b7100000000000000000000000000000000000000000000000000000000600052604160045260246000fd5b7f4e487b7100000000000000000000000000000000000000000000000000000000600052602260045260246000fd5b600060028204905060018216806200023557607f821691505b6020821081036200024b576200024a620001ed565b5b50919050565b60008190508160005260206000209050919050565b60006020601f8301049050919050565b600082821b905092915050565b600060088302620002b57fffffffffffffffffffffffffffffffffffffffffffffffffffffffffffffffff8262000276565b620002c1868362000276565b95508019841693508086168417925050509392505050565b6000819050919050565b6000819050919050565b60006200030e620003086200030284620002d9565b620002e3565b620002d9565b9050919050565b6000819050919050565b6200032a83620002ed565b62000342620003398262000315565b84845462000283565b825550505050565b600090565b620003596200034a565b620003668184846200031f565b505050565b5b818110156200038e57620003826000826200034f565b6001810190506200036c565b5050565b601f821115620003dd57620003a78162000251565b620003b28462000266565b81016020851015620003c2578190505b620003da620003d18562000266565b8301826200036b565b50505b505050565b600082821c905092915050565b60006200040260001984600802620003e2565b1980831691505092915050565b60006200041d8383620003ef565b9150826002028217905092915050565b6200043882620001b3565b67ffffffffffffffff811115620004545762000453620001be565b5b6200046082546200021c565b6200046d82828562000392565b600060209050601f831160018114620004a5576000841562000490578287015190505b6200049c85826200040f565b8655506200050c565b601f198416620004b58662000251565b60005b82811015620004df57848901518255600182019150602085019450602081019050620004b8565b86831015620004ff5784890151620004fb601f891682620003ef565b8355505b6001600288020188555050505b505050505050565b61363f80620005246000396000f3fe6080604052600436106101665760003560e01c8063715018a6116100d1578063c002d23d1161008a578063d204c45e11610064578063d204c45e1461051f578063daaeec8614610548578063e985e9c51461055f578063f2fde38b1461059c57610166565b8063c002d23d1461048c578063c1753c2b146104b7578063c87b56dd146104e257610166565b8063715018a6146103a2578063779e170d146103b95780638da5cb5b146103e457806395d89b411461040f578063a22cb4651461043a578063b88d4fde1461046357610166565b806323b872dd1161012357806323b872dd1461026e57806332cb6b0c1461029757806333c41a90146102c257806342842e0e146102ff5780636352211e1461032857806370a082311461036557610166565b806301ffc9a71461016b57806306661abd146101a857806306fdde03146101d3578063081812fc146101fe578063095ea7b31461023b5780631249c58b14610264575b600080fd5b34801561017757600080fd5b50610192600480360381019061018d91906121cd565b6105c5565b60405161019f9190612215565b60405180910390f35b3480156101b457600080fd5b506101bd6106a7565b6040516101ca9190612249565b60405180910390f35b3480156101df57600080fd5b506101e86106b8565b6040516101f591906122f4565b60405180910390f35b34801561020a57600080fd5b5061022560048036038101906102209190612342565b61074a565b60405161023291906123b0565b60405180910390f35b34801561024757600080fd5b50610262600480360381019061025d91906123f7565b610790565b005b61026c6108a7565b005b34801561027a57600080fd5b5061029560048036038101906102909190612437565b610ab4565b005b3480156102a357600080fd5b506102ac610b14565b6040516102b99190612249565b60405180910390f35b3480156102ce57600080fd5b506102e960048036038101906102e49190612342565b610b1a565b6040516102f69190612215565b60405180910390f35b34801561030b57600080fd5b5061032660048036038101906103219190612437565b610b70565b005b34801561033457600080fd5b5061034f600480360381019061034a9190612342565b610b90565b60405161035c91906123b0565b60405180910390f35b34801561037157600080fd5b5061038c6004803603810190610387919061248a565b610c16565b6040516103999190612249565b60405180910390f35b3480156103ae57600080fd5b506103b7610ccd565b005b3480156103c557600080fd5b506103ce610ce1565b6040516103db9190612215565b60405180910390f35b3480156103f057600080fd5b506103f9610cf4565b60405161040691906123b0565b60405180910390f35b34801561041b57600080fd5b50610424610d1e565b60405161043191906122f4565b60405180910390f35b34801561044657600080fd5b50610461600480360381019061045c91906124e3565b610db0565b005b34801561046f57600080fd5b5061048a60048036038101906104859190612658565b610dc6565b005b34801561049857600080fd5b506104a1610e28565b6040516104ae9190612249565b60405180910390f35b3480156104c357600080fd5b506104cc610e34565b6040516104d99190612249565b60405180910390f35b3480156104ee57600080fd5b5061050960048036038101906105049190612342565b610e39565b60405161051691906122f4565b60405180910390f35b34801561052b57600080fd5b506105466004803603810190610541919061277c565b610e4b565b005b34801561055457600080fd5b5061055d610ed3565b005b34801561056b57600080fd5b50610586600480360381019061058191906127d8565b610f07565b6040516105939190612215565b60405180910390f35b3480156105a857600080fd5b506105c360048036038101906105be919061248a565b610f9b565b005b60007f80ac58cd000000000000000000000000000000000000000000000000000000007bffffffffffffffffffffffffffffffffffffffffffffffffffffffff1916827bffffffffffffffffffffffffffffffffffffffffffffffffffffffff1916148061069057507f5b5e139f000000000000000000000000000000000000000000000000000000007bffffffffffffffffffffffffffffffffffffffffffffffffffffffff1916827bffffffffffffffffffffffffffffffffffffffffffffffffffffffff1916145b806106a0575061069f8261101e565b5b9050919050565b60006106b36008611088565b905090565b6060600080546106c790612847565b80601f01602080910402602001604051908101604052809291908181526020018280546106f390612847565b80156107405780601f1061071557610100808354040283529160200191610740565b820191906000526020600020905b81548152906001019060200180831161072357829003601f168201915b5050505050905090565b600061075582611096565b6004600083815260200190815260200160002060009054906101000a900473ffffffffffffffffffffffffffffffffffffffff169050919050565b600061079b82610b90565b90508073ffffffffffffffffffffffffffffffffffffffff168373ffffffffffffffffffffffffffffffffffffffff160361080b576040517f08c379a0000000000000000000000000000000000000000000000000000000008152600401610802906128ea565b60405180910390fd5b8073ffffffffffffffffffffffffffffffffffffffff1661082a6110e1565b73ffffffffffffffffffffffffffffffffffffffff1614806108595750610858816108536110e1565b610f07565b5b610898576040517f08c379a000000000000000000000000000000000000000000000000000000000815260040161088f9061297c565b60405180910390fd5b6108a283836110e9565b505050565b6002600a60003373ffffffffffffffffffffffffffffffffffffffff1673ffffffffffffffffffffffffffffffffffffffff16815260200190815260200160002060009054906101000a900461ffff1661ffff161061093b576040517f08c379a000000000000000000000000000000000000000000000000000000000815260040161093290612a0e565b60405180910390fd5b6706f05b59d3b200003414610985576040517f08c379a000000000000000000000000000000000000000000000000000000000815260040161097c90612a7a565b60405180910390fd5b600960009054906101000a900460ff166109d4576040517f08c379a00000000000000000000000000000000000000000000000000000000081526004016109cb90612ae6565b60405180910390fd5b6109de60086111a2565b600a60003373ffffffffffffffffffffffffffffffffffffffff1673ffffffffffffffffffffffffffffffffffffffff168152602001908152602001600020600081819054906101000a900461ffff1680929190610a3b90612b43565b91906101000a81548161ffff021916908361ffff1602179055505060053373ffffffffffffffffffffffffffffffffffffffff163073ffffffffffffffffffffffffffffffffffffffff167f33b205e07bbd85b6059189c443b2af05921d8e46c77a0291a31b61015167906560405160405180910390a4565b610ac5610abf6110e1565b826111b8565b610b04576040517f08c379a0000000000000000000000000000000000000000000000000000000008152600401610afb90612bdf565b60405180910390fd5b610b0f83838361124d565b505050565b6103e881565b60006103e88210610b60576040517f08c379a0000000000000000000000000000000000000000000000000000000008152600401610b5790612c71565b60405180910390fd5b610b6982611546565b9050919050565b610b8b83838360405180602001604052806000815250610dc6565b505050565b600080610b9c83611587565b9050600073ffffffffffffffffffffffffffffffffffffffff168173ffffffffffffffffffffffffffffffffffffffff1603610c0d576040517f08c379a0000000000000000000000000000000000000000000000000000000008152600401610c0490612cdd565b60405180910390fd5b80915050919050565b60008073ffffffffffffffffffffffffffffffffffffffff168273ffffffffffffffffffffffffffffffffffffffff1603610c86576040517f08c379a0000000000000000000000000000000000000000000000000000000008152600401610c7d90612d6f565b60405180910390fd5b600360008373ffffffffffffffffffffffffffffffffffffffff1673ffffffffffffffffffffffffffffffffffffffff168152602001908152602001600020549050919050565b610cd56115c4565b610cdf6000611642565b565b600960009054906101000a900460ff1681565b6000600760009054906101000a900473ffffffffffffffffffffffffffffffffffffffff16905090565b606060018054610d2d90612847565b80601f0160208091040260200160405190810160405280929190818152602001828054610d5990612847565b8015610da65780601f10610d7b57610100808354040283529160200191610da6565b820191906000526020600020905b815481529060010190602001808311610d8957829003601f168201915b5050505050905090565b610dc2610dbb6110e1565b8383611708565b5050565b610dd7610dd16110e1565b836111b8565b610e16576040517f08c379a0000000000000000000000000000000000000000000000000000000008152600401610e0d90612bdf565b60405180910390fd5b610e2284848484611874565b50505050565b6706f05b59d3b2000081565b600281565b6060610e44826118d0565b9050919050565b610e536115c4565b600960009054906101000a900460ff16610ea2576040517f08c379a0000000000000000000000000000000000000000000000000000000008152600401610e9990612ae6565b60405180910390fd5b6000610eae6008611088565b9050610eba60086111a2565b610ec483826119e2565b610ece8183611a00565b505050565b610edb6115c4565b600960009054906101000a900460ff1615600960006101000a81548160ff021916908315150217905550565b6000600560008473ffffffffffffffffffffffffffffffffffffffff1673ffffffffffffffffffffffffffffffffffffffff16815260200190815260200160002060008373ffffffffffffffffffffffffffffffffffffffff1673ffffffffffffffffffffffffffffffffffffffff16815260200190815260200160002060009054906101000a900460ff16905092915050565b610fa36115c4565b600073ffffffffffffffffffffffffffffffffffffffff168173ffffffffffffffffffffffffffffffffffffffff1603611012576040517f08c379a000000000000000000000000000000000000000000000000000000000815260040161100990612e01565b60405180910390fd5b61101b81611642565b50565b60007f01ffc9a7000000000000000000000000000000000000000000000000000000007bffffffffffffffffffffffffffffffffffffffffffffffffffffffff1916827bffffffffffffffffffffffffffffffffffffffffffffffffffffffff1916149050919050565b600081600001549050919050565b61109f81611546565b6110de576040517f08c379a00000000000000000000000000000000000000000000000000000000081526004016110d590612cdd565b60405180910390fd5b50565b600033905090565b816004600083815260200190815260200160002060006101000a81548173ffffffffffffffffffffffffffffffffffffffff021916908373ffffffffffffffffffffffffffffffffffffffff160217905550808273ffffffffffffffffffffffffffffffffffffffff1661115c83610b90565b73ffffffffffffffffffffffffffffffffffffffff167f8c5be1e5ebec7d5bd14f71427d1e84f3dd0314c0f7b2291e5b200ac8c7c3b92560405160405180910390a45050565b6001816000016000828254019250508190555050565b6000806111c483610b90565b90508073ffffffffffffffffffffffffffffffffffffffff168473ffffffffffffffffffffffffffffffffffffffff16148061120657506112058185610f07565b5b8061124457508373ffffffffffffffffffffffffffffffffffffffff1661122c8461074a565b73ffffffffffffffffffffffffffffffffffffffff16145b91505092915050565b8273ffffffffffffffffffffffffffffffffffffffff1661126d82610b90565b73ffffffffffffffffffffffffffffffffffffffff16146112c3576040517f08c379a00000000000000000000000000000000000000000000000000000000081526004016112ba90612e93565b60405180910390fd5b600073ffffffffffffffffffffffffffffffffffffffff168273ffffffffffffffffffffffffffffffffffffffff1603611332576040517f08c379a000000000000000000000000000000000000000000000000000000000815260040161132990612f25565b60405180910390fd5b61133f8383836001611a6d565b8273ffffffffffffffffffffffffffffffffffffffff1661135f82610b90565b73ffffffffffffffffffffffffffffffffffffffff16146113b5576040517f08c379a00000000000000000000000000000000000000000000000000000000081526004016113ac90612e93565b60405180910390fd5b6004600082815260200190815260200160002060006101000a81549073ffffffffffffffffffffffffffffffffffffffff02191690556001600360008573ffffffffffffffffffffffffffffffffffffffff1673ffffffffffffffffffffffffffffffffffffffff168152602001908152602001600020600082825403925050819055506001600360008473ffffffffffffffffffffffffffffffffffffffff1673ffffffffffffffffffffffffffffffffffffffff16815260200190815260200160002060008282540192505081905550816002600083815260200190815260200160002060006101000a81548173ffffffffffffffffffffffffffffffffffffffff021916908373ffffffffffffffffffffffffffffffffffffffff160217905550808273ffffffffffffffffffffffffffffffffffffffff168473ffffffffffffffffffffffffffffffffffffffff167fddf252ad1be2c89b69c2b068fc378daa952ba7f163c4a11628f55a4df523b3ef60405160405180910390a46115418383836001611a73565b505050565b60008073ffffffffffffffffffffffffffffffffffffffff1661156883611587565b73ffffffffffffffffffffffffffffffffffffffff1614159050919050565b60006002600083815260200190815260200160002060009054906101000a900473ffffffffffffffffffffffffffffffffffffffff169050919050565b6115cc6110e1565b73ffffffffffffffffffffffffffffffffffffffff166115ea610cf4565b73ffffffffffffffffffffffffffffffffffffffff1614611640576040517f08c379a000000000000000000000000000000000000000000000000000000000815260040161163790612f91565b60405180910390fd5b565b6000600760009054906101000a900473ffffffffffffffffffffffffffffffffffffffff16905081600760006101000a81548173ffffffffffffffffffffffffffffffffffffffff021916908373ffffffffffffffffffffffffffffffffffffffff1602179055508173ffffffffffffffffffffffffffffffffffffffff168173ffffffffffffffffffffffffffffffffffffffff167f8be0079c531659141344cd1fd0a4f28419497f9722a3daafe3b4186f6b6457e060405160405180910390a35050565b8173ffffffffffffffffffffffffffffffffffffffff168373ffffffffffffffffffffffffffffffffffffffff1603611776576040517f08c379a000000000000000000000000000000000000000000000000000000000815260040161176d90612ffd565b60405180910390fd5b80600560008573ffffffffffffffffffffffffffffffffffffffff1673ffffffffffffffffffffffffffffffffffffffff16815260200190815260200160002060008473ffffffffffffffffffffffffffffffffffffffff1673ffffffffffffffffffffffffffffffffffffffff16815260200190815260200160002060006101000a81548160ff0219169083151502179055508173ffffffffffffffffffffffffffffffffffffffff168373ffffffffffffffffffffffffffffffffffffffff167f17307eab39ab6107e8899845ad3d59bd9653f200f220920489ca2b5937696c31836040516118679190612215565b60405180910390a3505050565b61187f84848461124d565b61188b84848484611a79565b6118ca576040517f08c379a00000000000000000000000000000000000000000000000000000000081526004016118c19061308f565b60405180910390fd5b50505050565b60606118db82611096565b60006006600084815260200190815260200160002080546118fb90612847565b80601f016020809104026020016040519081016040528092919081815260200182805461192790612847565b80156119745780601f1061194957610100808354040283529160200191611974565b820191906000526020600020905b81548152906001019060200180831161195757829003601f168201915b505050505090506000611985611c00565b9050600081510361199a5781925050506119dd565b6000825111156119cf5780826040516020016119b79291906130eb565b604051602081830303815290604052925050506119dd565b6119d884611c3d565b925050505b919050565b6119fc828260405180602001604052806000815250611ca5565b5050565b611a0982611546565b611a48576040517f08c379a0000000000000000000000000000000000000000000000000000000008152600401611a3f90613181565b60405180910390fd5b80600660008481526020019081526020016000209081611a68919061334d565b505050565b50505050565b50505050565b6000611a9a8473ffffffffffffffffffffffffffffffffffffffff16611d00565b15611bf3578373ffffffffffffffffffffffffffffffffffffffff1663150b7a02611ac36110e1565b8786866040518563ffffffff1660e01b8152600401611ae59493929190613474565b6020604051808303816000875af1925050508015611b2157506040513d601f19601f82011682018060405250810190611b1e91906134d5565b60015b611ba3573d8060008114611b51576040519150601f19603f3d011682016040523d82523d6000602084013e611b56565b606091505b506000815103611b9b576040517f08c379a0000000000000000000000000000000000000000000000000000000008152600401611b929061308f565b60405180910390fd5b805181602001fd5b63150b7a0260e01b7bffffffffffffffffffffffffffffffffffffffffffffffffffffffff1916817bffffffffffffffffffffffffffffffffffffffffffffffffffffffff191614915050611bf8565b600190505b949350505050565b60606040518060400160405280600781526020017f697066733a2f2f00000000000000000000000000000000000000000000000000815250905090565b6060611c4882611096565b6000611c52611c00565b90506000815111611c725760405180602001604052806000815250611c9d565b80611c7c84611d23565b604051602001611c8d9291906130eb565b6040516020818303038152906040525b915050919050565b611caf8383611df1565b611cbc6000848484611a79565b611cfb576040517f08c379a0000000000000000000000000000000000000000000000000000000008152600401611cf29061308f565b60405180910390fd5b505050565b6000808273ffffffffffffffffffffffffffffffffffffffff163b119050919050565b606060006001611d328461200e565b01905060008167ffffffffffffffff811115611d5157611d5061252d565b5b6040519080825280601f01601f191660200182016040528015611d835781602001600182028036833780820191505090505b509050600082602001820190505b600115611de6578080600190039150507f3031323334353637383961626364656600000000000000000000000000000000600a86061a8153600a8581611dda57611dd9613502565b5b04945060008503611d91575b819350505050919050565b600073ffffffffffffffffffffffffffffffffffffffff168273ffffffffffffffffffffffffffffffffffffffff1603611e60576040517f08c379a0000000000000000000000000000000000000000000000000000000008152600401611e579061357d565b60405180910390fd5b611e6981611546565b15611ea9576040517f08c379a0000000000000000000000000000000000000000000000000000000008152600401611ea0906135e9565b60405180910390fd5b611eb7600083836001611a6d565b611ec081611546565b15611f00576040517f08c379a0000000000000000000000000000000000000000000000000000000008152600401611ef7906135e9565b60405180910390fd5b6001600360008473ffffffffffffffffffffffffffffffffffffffff1673ffffffffffffffffffffffffffffffffffffffff16815260200190815260200160002060008282540192505081905550816002600083815260200190815260200160002060006101000a81548173ffffffffffffffffffffffffffffffffffffffff021916908373ffffffffffffffffffffffffffffffffffffffff160217905550808273ffffffffffffffffffffffffffffffffffffffff16600073ffffffffffffffffffffffffffffffffffffffff167fddf252ad1be2c89b69c2b068fc378daa952ba7f163c4a11628f55a4df523b3ef60405160405180910390a461200a600083836001611a73565b5050565b600080600090507a184f03e93ff9f4daa797ed6e38ed64bf6a1f010000000000000000831061206c577a184f03e93ff9f4daa797ed6e38ed64bf6a1f010000000000000000838161206257612061613502565b5b0492506040810190505b6d04ee2d6d415b85acef810000000083106120a9576d04ee2d6d415b85acef8100000000838161209f5761209e613502565b5b0492506020810190505b662386f26fc1000083106120d857662386f26fc1000083816120ce576120cd613502565b5b0492506010810190505b6305f5e1008310612101576305f5e10083816120f7576120f6613502565b5b0492506008810190505b612710831061212657612710838161211c5761211b613502565b5b0492506004810190505b60648310612149576064838161213f5761213e613502565b5b0492506002810190505b600a8310612158576001810190505b80915050919050565b6000604051905090565b600080fd5b600080fd5b60007fffffffff0000000000000000000000000000000000000000000000000000000082169050919050565b6121aa81612175565b81146121b557600080fd5b50565b6000813590506121c7816121a1565b92915050565b6000602082840312156121e3576121e261216b565b5b60006121f1848285016121b8565b91505092915050565b60008115159050919050565b61220f816121fa565b82525050565b600060208201905061222a6000830184612206565b92915050565b6000819050919050565b61224381612230565b82525050565b600060208201905061225e600083018461223a565b92915050565b600081519050919050565b600082825260208201905092915050565b60005b8381101561229e578082015181840152602081019050612283565b60008484015250505050565b6000601f19601f8301169050919050565b60006122c682612264565b6122d0818561226f565b93506122e0818560208601612280565b6122e9816122aa565b840191505092915050565b6000602082019050818103600083015261230e81846122bb565b905092915050565b61231f81612230565b811461232a57600080fd5b50565b60008135905061233c81612316565b92915050565b6000602082840312156123585761235761216b565b5b60006123668482850161232d565b91505092915050565b600073ffffffffffffffffffffffffffffffffffffffff82169050919050565b600061239a8261236f565b9050919050565b6123aa8161238f565b82525050565b60006020820190506123c560008301846123a1565b92915050565b6123d48161238f565b81146123df57600080fd5b50565b6000813590506123f1816123cb565b92915050565b6000806040838503121561240e5761240d61216b565b5b600061241c858286016123e2565b925050602061242d8582860161232d565b9150509250929050565b6000806000606084860312156124505761244f61216b565b5b600061245e868287016123e2565b935050602061246f868287016123e2565b92505060406124808682870161232d565b9150509250925092565b6000602082840312156124a05761249f61216b565b5b60006124ae848285016123e2565b91505092915050565b6124c0816121fa565b81146124cb57600080fd5b50565b6000813590506124dd816124b7565b92915050565b600080604083850312156124fa576124f961216b565b5b6000612508858286016123e2565b9250506020612519858286016124ce565b9150509250929050565b600080fd5b600080fd5b7f4e487b7100000000000000000000000000000000000000000000000000000000600052604160045260246000fd5b612565826122aa565b810181811067ffffffffffffffff821117156125845761258361252d565b5b80604052505050565b6000612597612161565b90506125a3828261255c565b919050565b600067ffffffffffffffff8211156125c3576125c261252d565b5b6125cc826122aa565b9050602081019050919050565b82818337600083830152505050565b60006125fb6125f6846125a8565b61258d565b90508281526020810184848401111561261757612616612528565b5b6126228482856125d9565b509392505050565b600082601f83011261263f5761263e612523565b5b813561264f8482602086016125e8565b91505092915050565b600080600080608085870312156126725761267161216b565b5b6000612680878288016123e2565b9450506020612691878288016123e2565b93505060406126a28782880161232d565b925050606085013567ffffffffffffffff8111156126c3576126c2612170565b5b6126cf8782880161262a565b91505092959194509250565b600067ffffffffffffffff8211156126f6576126f561252d565b5b6126ff826122aa565b9050602081019050919050565b600061271f61271a846126db565b61258d565b90508281526020810184848401111561273b5761273a612528565b5b6127468482856125d9565b509392505050565b600082601f83011261276357612762612523565b5b813561277384826020860161270c565b91505092915050565b600080604083850312156127935761279261216b565b5b60006127a1858286016123e2565b925050602083013567ffffffffffffffff8111156127c2576127c1612170565b5b6127ce8582860161274e565b9150509250929050565b600080604083850312156127ef576127ee61216b565b5b60006127fd858286016123e2565b925050602061280e858286016123e2565b9150509250929050565b7f4e487b7100000000000000000000000000000000000000000000000000000000600052602260045260246000fd5b6000600282049050600182168061285f57607f821691505b60208210810361287257612871612818565b5b50919050565b7f4552433732313a20617070726f76616c20746f2063757272656e74206f776e6560008201527f7200000000000000000000000000000000000000000000000000000000000000602082015250565b60006128d460218361226f565b91506128df82612878565b604082019050919050565b60006020820190508181036000830152612903816128c7565b9050919050565b7f4552433732313a20617070726f76652063616c6c6572206973206e6f7420746f60008201527f6b656e206f776e6572206f7220617070726f76656420666f7220616c6c000000602082015250565b6000612966603d8361226f565b91506129718261290a565b604082019050919050565b6000602082019050818103600083015261299581612959565b9050919050565b7f4163636564656420746865206d6178696d756d20616d6f756e74206f66206d6960008201527f6e74732070657220706572736f6e000000000000000000000000000000000000602082015250565b60006129f8602e8361226f565b9150612a038261299c565b604082019050919050565b60006020820190508181036000830152612a27816129eb565b9050919050565b7f57726f6e6720616d6f756e742073656e74000000000000000000000000000000600082015250565b6000612a6460118361226f565b9150612a6f82612a2e565b602082019050919050565b60006020820190508181036000830152612a9381612a57565b9050919050565b7f53616c65206973206e6f7420617661696c61626c650000000000000000000000600082015250565b6000612ad060158361226f565b9150612adb82612a9a565b602082019050919050565b60006020820190508181036000830152612aff81612ac3565b9050919050565b7f4e487b7100000000000000000000000000000000000000000000000000000000600052601160045260246000fd5b600061ffff82169050919050565b6000612b4e82612b35565b915061ffff8203612b6257612b61612b06565b5b600182019050919050565b7f4552433732313a2063616c6c6572206973206e6f7420746f6b656e206f776e6560008201527f72206f7220617070726f76656400000000000000000000000000000000000000602082015250565b6000612bc9602d8361226f565b9150612bd482612b6d565b604082019050919050565b60006020820190508181036000830152612bf881612bbc565b9050919050565b7f746f6b656e4964206f75747369646520636f6c6c656374696f6e20626f756e6460008201527f7300000000000000000000000000000000000000000000000000000000000000602082015250565b6000612c5b60218361226f565b9150612c6682612bff565b604082019050919050565b60006020820190508181036000830152612c8a81612c4e565b9050919050565b7f4552433732313a20696e76616c696420746f6b656e2049440000000000000000600082015250565b6000612cc760188361226f565b9150612cd282612c91565b602082019050919050565b60006020820190508181036000830152612cf681612cba565b9050919050565b7f4552433732313a2061646472657373207a65726f206973206e6f74206120766160008201527f6c6964206f776e65720000000000000000000000000000000000000000000000602082015250565b6000612d5960298361226f565b9150612d6482612cfd565b604082019050919050565b60006020820190508181036000830152612d8881612d4c565b9050919050565b7f4f776e61626c653a206e6577206f776e657220697320746865207a65726f206160008201527f6464726573730000000000000000000000000000000000000000000000000000602082015250565b6000612deb60268361226f565b9150612df682612d8f565b604082019050919050565b60006020820190508181036000830152612e1a81612dde565b9050919050565b7f4552433732313a207472616e736665722066726f6d20696e636f72726563742060008201527f6f776e6572000000000000000000000000000000000000000000000000000000602082015250565b6000612e7d60258361226f565b9150612e8882612e21565b604082019050919050565b60006020820190508181036000830152612eac81612e70565b9050919050565b7f4552433732313a207472616e7366657220746f20746865207a65726f2061646460008201527f7265737300000000000000000000000000000000000000000000000000000000602082015250565b6000612f0f60248361226f565b9150612f1a82612eb3565b604082019050919050565b60006020820190508181036000830152612f3e81612f02565b9050919050565b7f4f776e61626c653a2063616c6c6572206973206e6f7420746865206f776e6572600082015250565b6000612f7b60208361226f565b9150612f8682612f45565b602082019050919050565b60006020820190508181036000830152612faa81612f6e565b9050919050565b7f4552433732313a20617070726f766520746f2063616c6c657200000000000000600082015250565b6000612fe760198361226f565b9150612ff282612fb1565b602082019050919050565b6000602082019050818103600083015261301681612fda565b9050919050565b7f4552433732313a207472616e7366657220746f206e6f6e20455243373231526560008201527f63656976657220696d706c656d656e7465720000000000000000000000000000602082015250565b600061307960328361226f565b91506130848261301d565b604082019050919050565b600060208201905081810360008301526130a88161306c565b9050919050565b600081905092915050565b60006130c582612264565b6130cf81856130af565b93506130df818560208601612280565b80840191505092915050565b60006130f782856130ba565b915061310382846130ba565b91508190509392505050565b7f45524337323155524953746f726167653a2055524920736574206f66206e6f6e60008201527f6578697374656e7420746f6b656e000000000000000000000000000000000000602082015250565b600061316b602e8361226f565b91506131768261310f565b604082019050919050565b6000602082019050818103600083015261319a8161315e565b9050919050565b60008190508160005260206000209050919050565b60006020601f8301049050919050565b600082821b905092915050565b6000600883026132037fffffffffffffffffffffffffffffffffffffffffffffffffffffffffffffffff826131c6565b61320d86836131c6565b95508019841693508086168417925050509392505050565b6000819050919050565b600061324a61324561324084612230565b613225565b612230565b9050919050565b6000819050919050565b6132648361322f565b61327861327082613251565b8484546131d3565b825550505050565b600090565b61328d613280565b61329881848461325b565b505050565b5b818110156132bc576132b1600082613285565b60018101905061329e565b5050565b601f821115613301576132d2816131a1565b6132db846131b6565b810160208510156132ea578190505b6132fe6132f6856131b6565b83018261329d565b50505b505050565b600082821c905092915050565b600061332460001984600802613306565b1980831691505092915050565b600061333d8383613313565b9150826002028217905092915050565b61335682612264565b67ffffffffffffffff81111561336f5761336e61252d565b5b6133798254612847565b6133848282856132c0565b600060209050601f8311600181146133b757600084156133a5578287015190505b6133af8582613331565b865550613417565b601f1984166133c5866131a1565b60005b828110156133ed578489015182556001820191506020850194506020810190506133c8565b8683101561340a5784890151613406601f891682613313565b8355505b6001600288020188555050505b505050505050565b600081519050919050565b600082825260208201905092915050565b60006134468261341f565b613450818561342a565b9350613460818560208601612280565b613469816122aa565b840191505092915050565b600060808201905061348960008301876123a1565b61349660208301866123a1565b6134a3604083018561223a565b81810360608301526134b5818461343b565b905095945050505050565b6000815190506134cf816121a1565b92915050565b6000602082840312156134eb576134ea61216b565b5b60006134f9848285016134c0565b91505092915050565b7f4e487b7100000000000000000000000000000000000000000000000000000000600052601260045260246000fd5b7f4552433732313a206d696e7420746f20746865207a65726f2061646472657373600082015250565b600061356760208361226f565b915061357282613531565b602082019050919050565b600060208201905081810360008301526135968161355a565b9050919050565b7f4552433732313a20746f6b656e20616c7265616479206d696e74656400000000600082015250565b60006135d3601c8361226f565b91506135de8261359d565b602082019050919050565b60006020820190508181036000830152613602816135c6565b905091905056fea264697066735822122079034a3a05244e85c2e540047ddfd73cf74af46aaa5803e4120ea1719d7afec264736f6c63430008120033",
  "linkReferences": {},
  "deployedLinkReferences": {}
}